:020000040800F2
:10000000D8050020010100080F2300089B1F0008ED
:100010000D230008FB080008A929000800000000C3
:100020000000000000000000000000007324000831
:10003000FD080008000000001123000875240008D6
:100040001B0100081B0100081B0100081B01000820
:100050001B0100081B0100081B0100081B01000810
:100060001B0100081B0100081B0100081B01000800
:100070001B0100081B0100081B0100081B010008F0
:100080001B0100081B0100081B0100081B010008E0
:100090001B0100081B0100081B0100081B010008D0
:1000A0001B010008292500081B0100081B0100088E
:1000B00035250008412500084D2500081B010008D2
:1000C0001B0100081B0100081B0100081B010008A0
:1000D0001B0100086D2900081B0100089D2900086C
:1000E0001B010008152300081B010008DFF80CD0D5
:1000F00000F0D0FB00480047E5330008D805002099
:100100000648804706480047FEE7FEE7FEE7FEE7B1
:10011000FEE7FEE7FEE7FEE7FEE7FEE7E124000874
:10012000ED000008202A04DB203A21FA02F0002129
:10013000704721FA02F3D040C2F1200291400843F7
:1001400019467047D2B201E000F8012B491EFBD2DC
:1001500070470022F6E710B513460A4604461946D2
:10016000FFF7F0FF204610BD30B505462A460B4686
:1001700012F8010B13F8014B08B1A042F8D01CB1E2
:10018000002802D06D1CF1E7284630BDF0B480EAAB
:100190000102D40F4200B2EB410F02D202460846E0
:1001A00011464A0042D0C30DDDB2C1F3C752AD1AA9
:1001B000202D35DAC1F3160141F4000204B1524298
:1001C000C5F1200602FA06F12A411044B3EBD05FD4
:1001D00023D0C4B1012DA0EBC35009DCF0BC4FF01B
:1001E000004202EAC352DBB200F5000000F0F0B9B1
:1001F000400000F1807000EBC350A0F1807040EA35
:10020000D170490009E0490841EAC071A0EBC35030
:1002100000F50000400800EBC350F0BC00F0CFB97F
:100220006142012202EB4101001BF6E7F0BC70477E
:1002300081F00041AAE780F00040A7E780EA0102D0
:1002400010B502F00043400022D04A001FD0010E3A
:1002500001EB1261C0F35600C2F3560240F40000F5
:1002600042F40002A0FB022000047F39140400D0F5
:10027000401C50EA124001D44000491EC2B20C0694
:1002800004EBD010401C4008802A02D003E000207C
:1002900010BD20F00100002900DA0020184310BD35
:1002A0002DE9FE4F81EA030404F0004421F00041EF
:1002B00000944FF0000B23F0004350EA01045ED09D
:1002C00052EA03045BD0C3F30A54C1F30A552C4429
:1002D000A4F2F3340194A0FB0254C1F3130141F4DE
:1002E0008011C3F3130343F4801301FB024400FBAA
:1002F000034E840A970A44EA815447EA8357A4FBD1
:10030000076802958D0A05FB07854FEA932C04FBCD
:100310000C542705029D4FEA065847EA1637B5EBFD
:1003200008056EEB070C870E920E47EA811742EA2A
:100330008312A7FB0201B6EB0B0164EB00042B0D4B
:1003400043EA0C335E1844EB1C50DA465146E7FB97
:100350000201C5F313044FEA0B3343EA14534FEA87
:100360000432019C43EA0603A4F10C040294009CAD
:10037000CDE900B400F069F903B0BDE8F08F0020CA
:100380000146F9E72DE9F04D81EA030404F0004B42
:1003900021F0004514464FF0000A23F0004150EAD6
:1003A000050220D054EA01021DD0C5F30A570246C7
:1003B000C5F31303C1F31300C1F30A5640F48015CB
:1003C00043F48013A7EB0608101BD64608F2FD384D
:1003D00073EB050002D308F1010801E092185B41BC
:1003E000B8F1000F03DA00200146BDE8F08D0020CF
:1003F0004FF48011064684460EE0171B73EB050789
:1004000005D3121B63EB050306434CEA010C4908B4
:100410004FEA300092185B4150EA0107EDD152EAF1
:10042000030012D082EA040083EA0501084305D0E4
:10043000101BAB4106D20122002306E000224FF040
:10044000004302E06FF0010253101AEB06004CEB80
:10045000085110EB0A0041EB0B01BDE8F04D00F034
:10046000E5B870B521F0004303430CD0C1F30A5541
:100470000024D5EB040564EB0403D617AD1AB34191
:1004800002DB0020014670BD201841EB025170BD17
:100490000EB540F2334102910021CDE900110A4628
:1004A0000B4600F0D2F803B000BD20F00040C10DB3
:1004B000C0F3160040F400007F2901DA00207047E5
:1004C000962903DCC1F19601C840704796398840EF
:1004D000704700F0004230F000400AD0C10D01F535
:1004E0006071C0F3160042EA0151C208400711438F
:1004F000704700200146704701F0004330B421F0FE
:10050000004150EA010206D00A0DA2F56072C1F363
:100510001301002A02DC30BC00207047440F44EA7B
:10052000C104C100E01830BC00EBC25000F047B875
:1005300030B50B46014600202022012409E021FAB3
:1005400002F59D4205D303FA02F5491B04FA02F5B0
:100550002844151EA2F10102F1DC30BD2DE9F05F47
:100560000546002092469B46884606468146402422
:100570001BE02846414647462246FFF7D3FD534637
:100580005A46C01A914110D311461846224600F02F
:1005900093F92D1A67EB01084F46224601200021EE
:1005A00000F08AF917EB00094E41201EA4F1010466
:1005B000DFDC484631462A464346BDE8F09F002925
:1005C000A8BF7047401C490008BF20F001007047D9
:1005D00010B4B0FA80FC00FA0CF050EA010404BF39
:1005E00010BC704749B1CCF1200421FA04F411FA8F
:1005F0000CF118BF012121430843A3EB0C01CB1DD3
:100600004FEA00614FEA102042BF002010BC704743
:1006100000EBC35010440029A4BF10BC7047401C1D
:10062000490008BF20F0010010BC704710B5141E2F
:1006300073F1000408DA401C41F1000192185B419B
:100640001A4301D120F0010010BD2DE9F04D924672
:100650009B4611B1B1FA81F202E0B0FA80F2203289
:10066000904600F029F904460F4640EA0A0041EAA4
:100670000B0153465A46084313D0114653EA010072
:1006800019D0C8F140025046FFF74CFD05460E4612
:1006900050465946424600F00FF9084305D0012064
:1006A00004E020463946BDE8F08D0020054346EAC7
:1006B000E0762C4337430A986305E40AA0EB080070
:1006C0000022FD0A44EA47540A3002D500200146C0
:1006D000E9E7010510196941DDE90845001969419B
:1006E000BDE8F04DA2E72DE9FE4F804681EA030008
:1006F000C00F0C46009021F0004123F00045B8EBFC
:100700000200A94105D24046214690461C460B46B0
:10071000024623F00040104347D0270DC7F30A00DC
:10072000C3F30A510290401A019040286BDAC3F3D8
:10073000130040F4801B0098924620B10023D2EBB6
:10074000030A63EB0B0B01985946C0F14002504677
:1007500000F0B2F806460D4650465946019A00F0A0
:10076000BAF810EB08006141002487EA115284EACC
:10077000E7731A4340D0009A62B3019A012A4FEA04
:10078000075215DC001B61EB02014FF0004202EA48
:100790000752CDE90042001C41F5801132462B463C
:1007A000FFF753FF03B0BDE8F08F40462146F9E75D
:1007B000001B61EB0201001C41F5801300185B4136
:1007C0002018A2F5001747EB030140EAD570B619CF
:1007D0006D4111E06D084FEA360645EAC0754FEAF3
:1007E0000752001B61EB0201001C41F58011490812
:1007F0004FEA30000019514132462B4603B0BDE8A4
:10080000F04FFFF713BF0098012240000023D0EB08
:10081000020263EBE073009821464FEAE074B8EB04
:10082000000061EB0401E9E783F000435BE781F03E
:10083000004158E7C1F30A52C1F3130140F2FF33FC
:1008400041F480119A4202DA00200146704740F2DA
:1008500033439A42A2F2334202DC5242FFF762BCB7
:1008600000F02AB830B5041E71F1000404DB4FF02B
:100870000044404264EB0101141E73F1000405DBE7
:100880001C464FF00043524263EB0403994208BFF9
:10089000904230BD064C074D06E0E06840F0010391
:1008A00094E8070098471034AC42F6D3FFF722FCD7
:1008B000C4360008E4360008202A04DB203A00FA97
:1008C00002F1002070479140C2F1200320FA03F3A7
:1008D000194390407047202A06DBCB17203A41FA93
:1008E00002F043EAE07306E041FA02F3D040C2F1BD
:1008F00020029140084319467047FEE77047704751
:1009000010B590F821100024022903D0042181633E
:1009100001243DE001680A6822F00E020A600168C5
:100920000A6822F001020A601A4A0168914201D164
:10093000012121E0174A1432914201D110211BE01C
:10094000144A2832914201D1891515E0114A3C32EE
:10095000914201D189140FE00E4A5032914202D1E6
:100960004FF4803108E00B4A6432914202D14FF4D7
:10097000801101E04FF08071064A083A5160012170
:1009800080F82110002180F82010416B01B18847C8
:10099000204610BD0800024070B5044600F004F97E
:1009A0000546601C02D004480078044400F0FCF8BE
:1009B000401BA042FAD370BD140000202DE9F84F6F
:1009C000DFF8B891002409F1040A0AF1040B234668
:1009D0000F270BF1040EC9E00125A5402A40AA42C9
:1009E0007DD1674ED1F804C0ACEB0608B44532D0D7
:1009F00014DCBCF1030F3AD009DCBCF1000F2AD0A3
:100A0000BCF1010F1CD0BCF1020F31D11DE0BCF1D3
:100A1000110F17D0BCF1120F2AD119E0B8F5881FB9
:100A200019D006DCB8F5803F15D0B8F5801F1FD16E
:100A300011E0B8F5001F0ED0B8F5041F18D10AE078
:100A4000CB6815E0CB681B1D12E0CB6808330FE0C4
:100A5000CB680C330CE08B682BB1012B4FF00803F3
:100A600003D0456104E0042302E0056100E00023B7
:100A7000FF2A01D8064601E000F104064FEA84058A
:100A800001D9A5F12005D6F8008007FA05FC28EA6F
:100A90000C0803FA05F548EA0508C6F800804D6819
:100AA000ED0062D5374DAE6946F00106AE61AD6925
:100AB00024F0030605F001050095334D06EB050C07
:100AC000DCF80850A607360F07FA06F825EA0805ED
:100AD000DFF8B880404503D14FF0000817E044E04C
:100AE000DFF8AC80404502D14FF001080FE0DFF89D
:100AF000A480404502D14FF0020808E0DFF898805A
:100B0000404502D14FF0030801E04FF0040808FA15
:100B100006F848EA0508CCF808804D68D9F8006066
:100B2000ED034D4601D5164300E096432E604D6817
:100B3000DAF80060AD03554601D5164300E0964350
:100B40002E604D68DBF80060ED025D4601D516436E
:100B500000E096432E604D68DEF80060AD027546F9
:100B600001D5164300E096432E60641C0D682A46AA
:100B7000E5407FF431AFBDE8F88F0000000401408C
:100B80000000111000100240000001400008014068
:100B9000000C014000100140001401400AB1016145
:100BA00070470904FBE700000148806870470000B7
:100BB0001400002002488168027811448160704767
:100BC00014000020074810B5016841F010010160D1
:100BD000032000F075F8002000F006F800F024F87B
:100BE000002010BD0020024070B50D4D04464FF4AA
:100BF0007A712878B1FBF0F00A490968B1FBF0F08E
:100C000000F031FD48B9102C07D200222146501EB9
:100C100000F036F800206C6070BD012070BD00004F
:100C200014000020200000200C4808B5816941F024
:100C300001018161816901F001010091C16941F007
:100C40008051C161C06900F0805000900448416843
:100C500021F0E06141F00071416008BD00100240E8
:100C600000000140002809DB00F01F020121914033
:100C70004009800000F1E020C0F80011704700003A
:100C8000F0B40E4B1B680C46C3F30223C3F10705F7
:100C9000042D00D90425191D072901D2002300E0E5
:100CA000DB1E012606FA05F1491E214099409E40AF
:100CB000761E16403143F0BC01F08CBE0CED00E016
:100CC000064900F0070208684FF6FF03184040EAA3
:100CD0000220034A10430860704700000CED00E05A
:100CE0000000FA05014901200862704700000E4229
:100CF00010B529A401461DCC86B08DE81D002AA0A0
:100D00002A4C006804900020012923D002293AD0FF
:100D100010291DD161682268D20119D5C1F383421F
:100D2000C9031DF8020009D5616804AAC1F3404156
:100D3000515C1F4AB2FBF1F1484301E01D494843B1
:100D40006168490204D440005FF00301B0FBF1F098
:100D500006B010BD226AC2F30121012903D1920716
:100D600001D5C803F4E7022905D1626A920702D5CA
:100D700049F64040ECE70329EAD121688903E7D529
:100D80004FF22440E4E700F033F96168C1F38131A8
:100D9000491C4900DAE700000203040506070809B8
:100DA0000A0B0C0D0E0F1010010200000010024083
:100DB00000127A0000093D002DE9F843054600784D
:100DC000354CC00754D0E0690026C00008D4E06963
:100DD00040F08050E061E069012600F08050009012
:100DE0002E480168C90512D40168804641F480711B
:100DF0000160FFF7D9FE074605E000BFFFF7D4FE0C
:100E0000C01B642823D8D8F80000C005F6D5206A96
:100E100010F4407021D0A98801F4407181421CD0A7
:100E2000206A1F49012220F440700A6000220A60F3
:100E30002062C00711D0FFF7B7FE074641F288389D
:100E400008E000BFFFF7B0FEC11B414502D90320F7
:100E5000BDE8F883206A8007F4D5206A696820F429
:100E60004070084320621EB1E06920F08050E061CC
:100E70002878800705D56068A96820F440400843B9
:100E800060602878C00605D56068E96820F48000B5
:100E9000084360600020DBE7001002400070004063
:100EA000400442422DE9F0470F46050061D0434E11
:100EB000306800F00700B84209D2306820F007001F
:100EC00038433060306800F00700B84251D12868DC
:100ED0003B4C810712D5400703D5606840F4E060C1
:100EE00060602878000703D5606840F46050606057
:100EF0006068A96820F0F000084360602878C007A7
:100F000028D06868012810D02168022810D08907ED
:100F100000292EDA616821F0030101436160FFF7C7
:100F200043FE804641F288390DE021688903EFE7EE
:100F30008901EDE7FFF738FEA0EB0801494502D92A
:100F40000320BDE8F0876068696800F00C00B0EB32
:100F5000810FEFD1306800F00700B8420BD930683C
:100F600020F0070038433060306800F00700B842D6
:100F700001D00120E5E72878400705D56068E968D9
:100F800020F4E060084360602878000706D56068B8
:100F9000296920F4605040EAC100606000F038F830
:100FA0006168084AC1F30311515CC84006490860F2
:100FB00006480068FFF718FE0020C2E70020024044
:100FC00000100240AC36000820000020180000206D
:100FD0000448054900684968044AC1F30221515C8C
:100FE000C84070472000002000100240BC360008B6
:100FF0000448054900684968044AC1F3C221515CAC
:10100000C84070472000002000100240BC36000895
:1010100012A185B00FC98DE80F0014A0144A006812
:1010200004905168134801F00C03042B10D0082BD6
:101030000ED1C1F38343C9031DF803000AD55168DB
:1010400004AAC1F34041515C0A4A5043B0FBF1F09D
:1010500005B0704708494843FAE700000203040559
:10106000060708090A0B0C0D0E0F101001020000F4
:101070000010024000127A0000093D002DE9F84FEF
:10108000040070D02078C04DC00749D06868C0F314
:101090008100012807D06868C0F38100022809D1C7
:1010A0006868C00306D52868800339D560680028C1
:1010B000E7D035E06068B0F5803F0BD010B1B0F5F7
:1010C000A02F11D0286820F480302860286820F4F0
:1010D000802002E0286840F480302860606890B189
:1010E000FFF762FD06460AE0286840F48020286089
:1010F000F0E700BFFFF758FD801B642873D828680D
:101100008003F7D50CE0FFF74FFD064605E000BF72
:10111000FFF74AFD801B6428F0D828688003F7D4C5
:1011200020789A4E80074FF001094FF0000839D51A
:10113000686810F00C0F07D06868C0F381000228BF
:1011400009D16868C00306D42868800714D52069CF
:10115000012808D110E02069B0B1C6F80090FFF76F
:1011600023FD074605E00AE1FFF71EFDC01B02282C
:10117000C4D828688007F7D52868616920F0F8008E
:1011800040EAC10028600DE0C6F80080FFF70CFDC2
:10119000074604E0FFF708FDC01B022823D8286893
:1011A0008007F7D4207800072CD57948A169D9B1F8
:1011B000C0F80090FFF7F8FC074604E0FFF7F4FCE6
:1011C000C01B02280FD8686A8007F7D571484FF412
:1011D000FA510068B0FBF1F0009000BF0098411E8A
:1011E0000091FAD20EE080E0C0F80080FFF7DCFC4E
:1011F000074604E0FFF7D8FCC01B022875D8686AD0
:101200008007F7D42078400760D5E8690027C00040
:1012100008D4E86940F08050E861E869012700F0EF
:10122000805000905C480168C90513D4016883466A
:1012300041F480710160FFF7B7FC824606E000BF11
:10124000FFF7B2FCA0EB0A0064284ED8DBF80000E0
:10125000C005F5D5E06801280AD008B1052813D0EB
:10126000286A20F001002862286A20F0040002E0C9
:10127000286A40F001002862E06841F2883B98B19A
:10128000FFF792FC82460BE0286A40F004002862D7
:10129000EEE700BFFFF788FCA0EB0A0159455AD8DA
:1012A000286A8007F6D50CE0FFF77EFC824605E051
:1012B000FFF77AFCA0EB0A0159454CD8286A800751
:1012C000F6D41FB1E86920F08050E861E06988B386
:1012D0006968C1F38101022944D00228C6F8608000
:1012E00004D0FFF761FC044638E034E0FFF75CFC13
:1012F000074604E0FFF758FCC01B02282BD82868DB
:101300008001F7D4206AB0F5803F05D16868A168F4
:1013100020F4003008436860D4E908010843696894
:1013200021F4741108436860C6F86090FFF73CFC34
:10133000044606E025E000BFFFF736FC001B02284C
:1013400009D828688001F7D51BE000BFFFF72CFC07
:10135000001B022802D90320BDE8F88F286880010D
:10136000F4D40EE00128F7D06868226A00F48031D6
:10137000914204D1616A00F47010884201D00120CA
:10138000EAE70020E8E700000010024000004242C7
:10139000800442422000002000700040704700009E
:1013A00010B5044600680168890709D540688007C0
:1013B00006D52046FFF7F2FF21686FF00200486073
:1013C00003494FF4003008600120607410BD000034
:1013D0001404014070B5040003D0607C002610B1F5
:1013E00005E0012070BD2674204600F043F802207D
:1013F0006074204600F01AF9042578BB204600F0FE
:1014000098FF58BB2068416821F007014160A0683F
:1014100020B11748016821F0010101601448001F44
:101420000168A26821F46071114301606068411C89
:1014300004D10120FFF75CFC80B1401E21688A685E
:1014400022F00F0242EA10428A602168CA6860F303
:101450000F02CA60204600F087FF08B16574C0E73C
:10146000E67301206073A0736074002070BD0000FB
:10147000306C004008B500680D49884217D1FFF76D
:1014800031FC0C48C16941F00061C161C0690A4981
:1014900000F0006000900120086000221146292021
:1014A000FFF7EEFBBDE808402920FFF7DBBB08BDD6
:1014B00000280040001002403C0442422DE9F04167
:1014C0000D4604003BD0C5B3207C01283AD04FF034
:1014D000010884F8108002206074E87872B300F08C
:1014E0001FFFE073687800F01BFF6073A87800F0BE
:1014F00017FFA073C2B2617BE07B00F067FF20732F
:101500002870204600F052FF4FF46161B0FBF1F10A
:10151000002518292DD91822B1FBF2F1A1EB0111F8
:1015200001EB4101C1EB011100EBC1163146204630
:1015300000F08BFF0427C8B90BE000E004E00120B5
:10154000BDE8F0810220FBE7E07368786073A8785B
:10155000CFE7204600F023FF411C0AD0B04208D25A
:1015600006490144204600F05CFF10B16774257401
:10157000E5E784F8118025740020E1E7805101003F
:101580002DE9F0410D46040024D01DB3207C012834
:1015900023D04FF0010884F810800220607428786E
:1015A000EAB100F0BDFE4FF4616100FB01F668781E
:1015B00000F0B6FEC0EB001006EB8006A87800F045
:1015C000AFFE35182946204600F03FFF00260427CD
:1015D00010BB0FE00120BDE8F0810220FBE74FF4D3
:1015E000616148436978C1EB011100EB8100A97882
:1015F0004518E7E72068416821F005014160204671
:1016000000F0CDFE411C0AD0A84208D20649014490
:10161000204600F006FF10B167742674DAE784F8FC
:10162000118026740020D6E78051010070B50400B7
:101630000AD02068416821F008014160FFF7B4FA40
:1016400005464FF47A7608E0012070BDFFF7ACFA4A
:10165000401BB04201D9032070BD206840680007DC
:10166000F4D5002070BD10B5401EB0F1807F01D3CD
:10167000012010BD4FF0E02460610F21601701F0E0
:10168000A9F90020A06107202061002010BD70474B
:10169000704770B590F83C20012A19D0012400F859
:1016A0003C4F0222427050F83C3C5A689D6822F040
:1016B00070060A684968324325F0800529435A605C
:1016C00050F83C2C9160447000210170084670BDB8
:1016D000022070BD10B5040003D094F83D0010B195
:1016E00007E0012010BD002084F83C00204600F0F7
:1016F0000DF8022084F83D00211D206800F02CFF29
:10170000012084F83D00002010BD000008B5154AF6
:101710000168154891420ED1816941F400618161EF
:101720008069002200F40060009011461920FFF744
:10173000A7FA192010E0B1F1804F11D1C16941F031
:101740000101C161C069002200F001000090114652
:101750001C20FFF795FA1C20BDE80840FFF782BA6D
:1017600008BD0000002C0140001002400168CA685A
:1017700042F00102CA600068816801F00701062991
:1017800003D0016841F0010101600020704770B58D
:10179000044690F83C00012817D0012584F83C50FD
:1017A000022084F83D002068826822F0770222F44B
:1017B0007F4282600868502830D00DDC20284DD050
:1017C00005DC98B310283BD148E0022070BD3028DA
:1017D00044D0402834D139E0602828D0702806D081
:1017E000B0F5805F2CD0B0F5005F29D10AE0CB685E
:1017F000D1E90121206800F0F2FE2068816841F003
:10180000770109E0CB68D1E90121206800F0E7FE0B
:101810002068816841F48041816011E0CA684968AC
:10182000206800F091FF5021206807E016E0CA68A8
:101830004968206800F099FF6021206800F0D9FE17
:1018400084F83D50002084F83C0070BDCA684968A7
:10185000206800F079FF40212068EFE72268014608
:101860001046EBE72DE9F0410D46040003D094F853
:101870003D0018B108E00120BDE8F081002084F8A7
:101880003C00204600F03AF8022084F83D00206831
:10189000816844F2070291438160211D206800F0B5
:1018A0005BFE226890689169166A2B68AF690343F2
:1018B00040F20330814341EA0721A868EF690843F9
:1018C0004FF6FC418843E96840EA07200143286954
:1018D0002F6A000140EA0730084369686D6926F005
:1018E000220646EA05152943936022689061206824
:1018F0000162012084F83D000020BDE700B585B0FD
:1019000000210091019102910391224B026822482B
:10191000C0219A421BD1C26942F00202C261C2696F
:1019200002F002020492826942F00402826180693C
:10193000009100F00400049069461848FFF73EF853
:10194000002211461D20FFF79BF91D201DE0144BBE
:101950009A421CD1C26942F00402C261C26902F01B
:1019600004020492826942F0080282618069009157
:1019700000F00800049069460A48FFF71FF80022AB
:1019800011461E20FFF77CF91E20FFF76BF905B00A
:1019900000BD0000000400400010024000080140AB
:1019A00000080040000C014010B50446006891B1E9
:1019B000042904D00122002100F004FE2068012245
:1019C0005FF0040100F0FEFD2068016841F00101B4
:1019D0000160002010BD01220021F3E7704770B5BF
:1019E0000446006801694FF00005C943890715D412
:1019F000C168C943890711D4E91E0161012020771C
:101A0000206880698007204602D0FFF7E7FF04E0E6
:101A100000F0BCF8204600F03EF925772068016907
:101A2000C943490717D4C168C943490713D46FF0A4
:101A300004010161022020772068806910F4407F52
:101A4000204602D0FFF7CAFF04E000F09FF82046CE
:101A500000F021F9257720680169C943090716D4E8
:101A6000C168C943090712D46FF00801016104205D
:101A700020772068C0698007204602D0FFF7AEFFBC
:101A800004E000F083F8204600F005F9257720688F
:101A90000169C943C90617D4C168C943C90613D42B
:101AA0006FF010010161082020772068C06910F4F0
:101AB000407F204602D0FFF791FF04E000F066F877
:101AC000204600F0E8F8257720680169C943C90776
:101AD00008D1C168C943C90704D1891E01612046E4
:101AE00000F0F6F820680169C943090609D4C16805
:101AF000C943090605D46FF0800101612046FFF754
:101B0000C6FD20680169C943490609D4C168C943B3
:101B1000490605D46FF040010161204600F0D9F874
:101B200020680169C94389060BD4C168C943890685
:101B300007D46FF0200101612046BDE87040FFF737
:101B4000A7BD70BD00B585B0002100910191029143
:101B500003910068B0F1804F11D10A48816941F0CA
:101B6000040181618069694600F0040004900C2042
:101B700000900220019003900348FEF71FFF05B07C
:101B800000BD00000010024000080140704770B521
:101B9000044690F83C000D4601280DD0012684F83B
:101BA0003C60022084F83D0042B1042A18D0082A83
:101BB0002AD00C2A4DD139E0022070BD206800F0F7
:101BC00021FD2068816941F00801816120688169F7
:101BD00021F004018161206881692A69114311E0C3
:101BE000206800F037FD2068816941F4006181615F
:101BF0002068816921F480618161206881692A6996
:101C000041EA0221816124E0206800F04FFD206854
:101C1000C16941F00801C1612068C16921F0040176
:101C2000C1612068C1692A69114311E0206800F090
:101C300069FD2068C16941F40061C1612068C16922
:101C400021F48061C1612068C1692A6941EA0221E9
:101C5000C16184F83D60002084F83C0070BD10B57F
:101C6000040003D094F83D0010B107E0012010BD3E
:101C7000002084F83C00204600F00CF8022084F894
:101C80003D00211D206800F067FC012084F83D0024
:101C9000002010BD7047704710B50446006801224F
:101CA00000F090FC09492068884203D1416C41F45E
:101CB000004141642068816801F00701062903D0D2
:101CC000016841F001010160002010BD002C0140BD
:101CD000704770477047000070B50268044610688E
:101CE000D168536910F00F0F50D003F0010501F4D3
:101CF000907635435DD0C20705D0CA0503D5E26BA7
:101D000042F00102E263420705D5DA0703D0E26B35
:101D100042F00202E263820705D5DA0703D0E26BE4
:101D200042F00402E263020705D5DA0703D0E26B52
:101D300042F00802E263E26B002A33D0800604D549
:101D4000880602D5204600F038FD20684069E16B26
:101D5000C0F38010090700D428B3204600F01FFD0F
:101D60002068416949061AD5416921F04001416165
:101D7000606BA0B11B494163606BFEF7C1FD002899
:101D800010D0606B416BBDE870400847830610D5EA
:101D90008B060ED52046BDE8704000F00EBD2046F3
:101DA000FFF798FF70BD2046FFF794FF0020E06327
:101DB00070BD030606D50B0604D52046BDE870406D
:101DC00000F0A2BD4006F3D54806F1D5D168204603
:101DD00021F04001D160202184F8391000F0DCF8B6
:101DE00070BD00008F27000870B5040004D094F87F
:101DF0003900002510B106E0012070BD84F838508C
:101E0000204600F023F8242084F839002068C168B7
:101E100021F40051C160204600F01AFD20680169DC
:101E200021F4904101612068416921F02A0141615A
:101E30002068C16841F40051C160E563202084F846
:101E4000390084F83A00002070BD000070B586B0FB
:101E50000024009401940294039403682E482D4EAC
:101E6000022103220515B34226D1836943F480433E
:101E70008361836903F480430493836943F004031B
:101E800083618069254E00F0040004900802CDE9CA
:101E90000001039269463046FEF790FDCDE90054FB
:101EA000694630460294FEF789FD0022114625203E
:101EB000FEF7E6FE252028E0194EB34227D1C3697C
:101EC00043F48023C361C36903F4802304938369CB
:101ED00043F0080383618069CDE9005100F00800F8
:101EE000CDE903200F4D69462846FEF767FDE8144B
:101EF000CDE90004694628460294FEF75FFD002202
:101F000011462720FEF7BCFE2720FEF7ABFE06B0E9
:101F100070BD000000380140001002400008014080
:101F200000480040000C014090F83A30202B22D1AC
:101F3000F9B1F2B190F83830012B1CD08162828562
:101F4000C2850021C163222280F83A2080F838102F
:101F50000168CA6842F48072CA6001684A6942F046
:101F600001024A610068C16841F02001C16000209F
:101F700070470120704702207047000004498842E2
:101F800005D1044801214170C07800F0F5BC7047CC
:101F900098010020000000207047FEE72DE9F04383
:101FA00085B000242548009401940294039481692B
:101FB00041F010018161816901F010010491816992
:101FC00041F020018161816901F020010491816962
:101FD00041F004018161816901F00401049181698A
:101FE00041F0080181618069DFF8548000F0080049
:101FF0004FF400550490002229464046FEF7CEFDDE
:10200000DFF840904FF47047002239464846FEF70B
:10201000C5FD0095022601250396CDE901546946C8
:102020004046FEF7CBFC00970396CDE90154694684
:102030004846FEF7C3FC05B0BDE8F083001002403F
:1020400000100140000C01401CB500241748019409
:10205000154900940160611EC0E90114FFF7BAF947
:1020600008B1FEF74CFC8DF804408DF805408DF862
:102070000640002201A90D48FFF782FA08B1FEF7D9
:102080003EFC01208DF800008DF801008DF8020063
:102090008DF80340002269460448FFF70FFA002834
:1020A00001D0FEF72CFC1CBD00280040440000209D
:1020B00010B586B00024184800940194029403944B
:1020C000049414490594016041F61F41C0E90114CC
:1020D00040F2E731C0E9031444618461FFF7FAFA82
:1020E00008B1FEF70CFC4FF48050009069460A4896
:1020F000FFF74DFB08B1FEF702FC049404A9064863
:102100000594FFF7C6FA002801D0FEF7F8FB06B0E9
:1021100010BD0000002C01405800002010B58EB00A
:1021200000240794089409940A940B941C2168468F
:102130000C94FEF70EF822484FF08041C0E90014DD
:102140004FF47A71C0E9024104618461FFF7C2FA79
:1021500008B1FEF7D4FB4FF48050079007A9184848
:10216000FFF715FB08B1FEF7CAFB1548FFF777FD2F
:1021700008B1FEF7C4FB0B940BA911480C94FFF7B0
:1021800088FA08B1FEF7BBFB602000904FF4FA70AC
:10219000CDE901040822694609480494FFF7F7FCD9
:1021A00008B1FEF7ACFB0C2269460548FFF7EFFCCF
:1021B00008B1FEF7A4FB0248FFF7C4FC0EB010BD47
:1021C0009800002010B58CB024216846FDF7C1FFAF
:1021D00000241648099414490A94C0E900144FF6E3
:1021E000FF71C0E90241046184610120CDE900046E
:1021F000CDE9020406210491CDE90540CDE907416E
:1022000069460A48FFF72EFB08B1FEF778FB0994F0
:1022100009A906480A94FFF73CFA002801D0FEF706
:102220006EFB0CB010BD000000040040D800002080
:1022300010B58CB024216846FDF78BFF00241648AA
:10224000099414490A94C0E900144FF6FF71C0E9DB
:102250000241046184610120CDE90004CDE902045A
:1022600006210491CDE90540CDE9074169460A48B8
:10227000FFF7F8FA08B1FEF742FB099409A90648EE
:102280000A94FFF706FA002801D0FEF738FB0CB0DD
:1022900010BD000000080040180100200C4810B5D7
:1022A0000A4901604FF4E1314160002181600C2254
:1022B000C160C0E904128161C161FFF795FD00288A
:1022C00003D0BDE81040FEF71ABB10BD0038014036
:1022D000580100200C4810B50A4901604FF416510E
:1022E0004160002181600C22C160C0E9041281615B
:1022F000C161FFF779FD002803D0BDE81040FEF76B
:10230000FEBA10BD0048004098010020FEE770476B
:10231000704700000148FFF743B800004400002068
:10232000010901EB810100F00F0000EB4100C0B298
:10233000704770B50446FEF737FC05464FF47A76D1
:1023400006E0FEF731FC401BB04201D9032070BD0E
:10235000206840688006F4D52068416841F010018B
:102360004160002070BD000070B5044600684168FF
:1023700021F010014160FEF717FC05464FF47A7614
:1023800007E000BFFEF710FC401BB04201D903205C
:1023900070BD206840688006F4D5002070BD0168DB
:1023A000086A496A89B241EA004070470068816959
:1023B0008AB2C1698BB2816989B28A4203D0C0698D
:1023C00061F31F40704743EA02407047F0B5642450
:1023D000C1EBC1030927A500072603EB011303295D
:1023E000B3FBF7F100F5FA60114401440AD2401E34
:1023F000B0FBF4F201EB9001B0FBF5F0891A084450
:10240000001D08E0B0FBF4F201EB9001B0FBF5F029
:10241000891A0844801CB0FBF6F106FB1100C0B21B
:10242000F0BD70B50D4606460024FFF782FF48B99F
:102430003168280C08623168A8B248623046FFF75C
:1024400093FF00B10124204670BD70B50D460646CD
:102450000024FFF76EFF48B93168280C88613168A5
:10246000A8B2C8613046FFF77FFF00B101242046C3
:1024700070BD7047FEF79EBB70B594B028216846CA
:10248000FDF767FE14210AA8FDF763FE00240F94F0
:102490000520009001A91094119412944FF48030FB
:1024A000012581E8310002260495CDE907604FF44B
:1024B000E01009906846FEF7E1FD0F20CDE90A061D
:1024C000A802CDE90C4002210AA80E94FEF7EAFC0E
:1024D0002802CDE90F500FA8FEF76EFC14B070BDB6
:1024E0000D48016841F00101016041680B4A11404B
:1024F000416001680A4A11400160016821F48021AD
:102500000160416821F4FE0141604FF41F018160C8
:102510000449C00308607047001002400000FFF843
:10252000FFFFF6FE08ED00E00148FFF758BA000093
:10253000580000200148FFF752BA00009800002020
:102540000148FFF74CBA0000D80000200148FFF70F
:1025500046BA000018010020F0B50268164B174C6F
:10256000174D4FF08047984205D0B84203D0A042A3
:1025700001D0A84203D122F070064A683243984243
:1025800005D0B84203D0A04201D0A84203D122F422
:102590004074CA6822434C6922F0800222430260E0
:1025A0008A68C2620A688262984201D1096901633D
:1025B00001214161F0BD0000002C014000040040F9
:1025C0000008004010B501F01F030121046A994082
:1025D0008C430462016A9A401143016210BD10B538
:1025E000846842EA032224F47F440A43224382603F
:1025F00010BD826822F070020A4342F00701816038
:102600007047000030B5026A22F001020262026ADD
:102610004368846924F073050C682C4322F002059A
:102620008A682A430A4DA8420BD122F00805CA68DD
:1026300023F440732A434D6922F004021D438B6941
:102640002B434360846149684163026230BD0000EE
:10265000002C014030B5026A22F010020262026AC8
:10266000436884690D6824F4E64444EA05248D68CF
:1026700022F0200242EA05120B4DA8420ED1CD688D
:1026800022F0800242EA05124D6923F4406343EAD6
:1026900085038D6922F0400243EA8503436084612B
:1026A00049688163026230BD002C014030B5026A86
:1026B00022F480720262036A4268C46923F40073E0
:1026C00024F073050C682C438D6843EA05230C4DF8
:1026D000A8420ED1CD6823F4006343EA05234D6977
:1026E00022F4405242EA05128D6923F4806342EAE3
:1026F00005124260C4614968C163036230BD0000D5
:10270000002C014030B5026A22F480520262046A51
:102710004268C3690D6823F4E64343EA05238D68E4
:1027200024F4005444EA0534064DA84204D14D690E
:1027300022F4804242EA85124260C3614968016422
:10274000046230BD002C014010B5036A046A24F015
:1027500001040462846924F0F00444EA021423F0C2
:102760000A020A438461026210BD10B5036A23F0B5
:10277000100303628369046A23F4704343EA02325C
:1027800024F0A00343EA01118261016210BD10B57B
:10279000406A0021C185C184FFF79CFA10BD016821
:1027A000CA6822F49072CA6001684A6922F0010284
:1027B0004A61202180F83A10704710B590F83A101D
:1027C000222901D0022010BD8168B1F5805F11D0AF
:1027D0000169002901681FD0496801F07F03816AFF
:1027E0004A1C82620B70C18D491E0904090CC18507
:1027F00018D02BE00269816A002A0268526805D06D
:10280000D2B20A80816A491C8162ECE7C2F30802F5
:102810000A80816A891CF7E74A68816A4B1C8362D7
:102820000A70E0E70168CA6822F02002CA60016805
:10283000CA6822F48072CA6001684A6922F0010203
:102840004A61202180F83A10FFF798FB002010BD64
:102850002DE9F041044600680169E26821F4405125
:10286000114301612169A068084361690843216837
:10287000CA6841F20C639A430243CA602068416906
:10288000A26921F44071114341611E492068642509
:102890003226884202D1FEF7ABFB01E0FEF798FB3F
:1028A00000EBC00101EB001160686FF018078000B9
:1028B000B1FBF0F2B2FBF5F2B1FBF0F37A4303EBBC
:1028C0008202B1FBF0F306EB0212B2FBF5F2B3FBAE
:1028D000F5F302F0F00202EB0312B1FBF0F3B1FBEF
:1028E000F0F0B0FBF5F0784303EB800006EB00104E
:1028F000B0FBF5F0216800F00F0010448860BDE8DF
:10290000F08100000038014090F83910212901D0F1
:10291000022070478168B1F5805F016A0BD04A1CC4
:102920000262026809785160C18C491E0904090CD1
:10293000C1840ED017E009880268C1F30801516014
:1029400001690029016A02D0491C0162ECE7891C77
:10295000FBE70168CA6822F08002CA600068C168AB
:1029600041F04001C1600020704700000148FFF7BE
:10297000B3B9000058010020064A054B117858549D
:10298000491C117003490122C91C0348FFF7CCBA46
:102990002400002000000020980100200148FFF7DB
:1029A0009BB9000098010020FEE700000FB4084B1F
:1029B00010B504A902AA039800F0EEF8044602A993
:1029C000002000F080FC204610BC5DF814FB0000E5
:1029D000C73200080907090E002804DB00F1E020D7
:1029E00080F80014704700F00F0000F1E02080F83C
:1029F000141D704702E008C8121F08C1002AFAD14E
:102A000070477047002001E001C1121F002AFBD16E
:102A1000704700002DE9FF5F82B00021DDE904303E
:102A2000020DDDF840B0034318D044F61050A2F276
:102A3000FF3242431514119801281FD0A5EB0B005B
:102A4000401C5FEA000A4FF000064E4FDFF8389155
:102A5000B046504615D5CAF1000413E01198012480
:102A60004AA3012801D16FEA0B010298119AC0E92B
:102A70000031C0E9024206B0BDE8F09FCBF1000092
:102A8000DFE704460021404A491842EB0450CDE9F3
:102A9000001012E0E00707D032463B464046494668
:102AA000FDF7FEFB8046894632463B4610461946F6
:102AB000FDF7F6FB06460F466410002CEAD1DDE96F
:102AC0000401DDE90023BAF1000F06DAFDF7E8FBA7
:102AD00042464B46FDF7E4FB05E0FDF753FC42465A
:102AE0004B46FDF74FFC04460E460022284BFDF7EF
:102AF000B9FE03D84FF0FF30014607E00022254B16
:102B000020463146FDF7EFFDFDF794FE102409E065
:102B1000002C0ADB0A220023FDF720FD039B303244
:102B20001A55641E50EA0102F2D1641C039AC4F1E2
:102B300011031444119A012A03D0012208430DD134
:102B40000AE0084304D000204FF0110B119072E707
:102B5000A3EB0B056D1E0DE05B4504DD4FF000029D
:102B600005F1010504E003DA4FF00002A5F10105CB
:102B7000002AECD002981199C0E90231C0E9004561
:102B800079E70000000014400000F03F3000000032
:102B90000000F0430000E03F2DE9FF4F95B09B4659
:102BA0008946064600250FE2252877D100242746CE
:102BB000F84A0121059400E0044316F8013F203B48
:102BC00001FA03F01042F7D130782A2811D06FF0C3
:102BD0002F033078A0F13002092A16D8059A44F064
:102BE000020402EB820203EB42021044761C0590C1
:102BF000EFE759F8042B0592002A03DA504244F417
:102C00000054059044F00204761C30782E2816D12A
:102C100016F8010F44F004042A280DD06FF02F029B
:102C20003078A0F13003092B09D807EB870302EBBA
:102C30004303C718761CF3E759F8047B761C3078F9
:102C40006C280FD006DC4C2817D068280DD06A28D5
:102C500014D104E0742810D07A280FD10DE044F488
:102C600000140AE044F4801401E044F44014727843
:102C7000824202D104F58014761C761C30786628D6
:102C80000BD013DC582877D009DC002875D04528F4
:102C9000F6D04628F4D047281AD19DE118E06328E1
:102CA00035D0642879D0652812D195E1702873D089
:102CB00008DC6728F1D069286FD06E280DD06F2806
:102CC00006D1B5E073282CD0752875D0782874D03B
:102CD0005A46179990476D1C75E1C4F302500228BB
:102CE00009D003280DD0D9F8001004280DD00D60AC
:102CF00009F1040967E1D9F80010EA17C1E90052A7
:102D0000F6E7D9F800100D80F2E70D70F0E719F83A
:102D1000041B8DF8001000208DF80100EA46012008
:102D200003E059F804AB4FF0FF3061074FF00001AA
:102D300002D40DE008F101018846B9420FDA80455E
:102D4000F8DB1AF808100029F4D108E008F10101B5
:102D500088468142FADB1AF808100029F6D1059856
:102D60005B46A0EB080721463846179A00F094FA14
:102D7000284400EB080507E04DE029E10DE01AF8D2
:102D8000010B5A4617999047B8F10108F7D25B46F4
:102D900021463846179A13E142E00A220092C4F312
:102DA00002524FF0000A022A08D059F804CB032A35
:102DB0004FEAEC710AD00DE029E02AE009F10701A1
:102DC00021F00702F2E802C1914609E00FFA8CFCFB
:102DD0004FEAEC71042A03D14FFA8CFC4FEAEC71F4
:102DE000002907DA0A460021DCF1000C61EB020140
:102DF0002D2202E0220504D52B228DF80420012289
:102E000003E0E20701D02022F7E7904659E00A21CB
:102E100002E010220DE010214FF0000A00910BE0BB
:102E200010224FF0000A44F004040827009203E047
:102E300008224FF0000A0092C4F30252022A05D081
:102E400059F804CB0021032A08D009E009F1070151
:102E500021F00702F2E802C1914605E01FFA8CFC5E
:102E6000042A01D10CF0FF0C4FF00008220728D5EE
:102E7000702806D0009B83F0100353EA0A0305D0A4
:102E80000EE040228DF80420012208E05CEA0102F5
:102E900006D030228DF804208DF8050002229046DD
:102EA000009B83F0080353EA0A030AD15CEA01029B
:102EB00001D1620705D530228DF804204FF00108BA
:102EC0007F1E582804D034A003900EA802900DE075
:102ED00036A0F9E753466046009AFDF73FFB84466B
:102EE0000398825C0298401E029002705CEA010026
:102EF000F0D1029806A9081A00F1200A600702D54D
:102F000024F4803400E00127574502DDA7EB0A00D6
:102F100000E0002000EB0A01009005984144401AAF
:102F20000590E00306D45B462146179A059800F009
:102F3000B3F90544002706E001A85A46C05D179979
:102F400090476D1C7F1C4745F6DBE0030CD55B46C4
:102F50002146179A059800F09FF9054404E03020B7
:102F60005A46179990476D1C0099481E00900029F9
:102F7000F5DC08E0029802995A460078491C029153
:102F8000179990476D1CBAF10001AAF1010AF1DC12
:102F900065E100000928010030313233343536371D
:102FA0003839616263646566000000003031323395
:102FB0003435363738394142434445460000000035
:102FC00000F058F90544761C307800287FF4ECAD09
:102FD00019B02846BDE8F08F620700D4062709F132
:102FE000070222F0070CFCE80223E14603F0004848
:102FF0005FEA080C02D00FF2702C0DE05FEA045C6F
:1030000002D50FF2682C07E05FEAC47C02D00FF211
:10301000602C01E0AFF2700C4FF0FF3823F000435A
:10302000CDF850C065280CD006DC452809D04628CC
:103030001DD047283DD13DE0662818D067287ED1B5
:1030400038E00021112F01DB112000E0781CCDE9D0
:10305000000106A90EA8FFF7DDFCDDE90F010E9ABD
:1030600003910021009207F1010A04914DE04FF015
:1030700000400097CDE9011006A90EA8FFF7CAFC91
:10308000DDE90F0203920E9B11990022DDF80CA0DE
:103090000093049211B9791C00EB010AB7EB0A0006
:1030A00004D4C0F1FF3007F1010A0490AAEB070035
:1030B000019044E0012F00DA01270021112F01DDEA
:1030C000112000E03846CDE9000106A90EA8FFF75F
:1030D000A1FCDDE90F010E9A0391002104910092F9
:1030E000BA4621070CD40399514500DA8A46BAF151
:1030F000010F05DD009AAAF10101515C302908D0C9
:10310000B84202DA10F1040F06DA0121CDE901100C
:1031100015E0AAF10101E9E7002805DC0499014462
:103120000491AAEB000102E0411C514500DD8A46F2
:103130000499401A401C01904FF000400290200773
:1031400004D40198504501DBCDF8048000208DF8AF
:103150004F0002980DF14F07B0F1004F25D02B2002
:103160000E9002984FF0020800280CDA40420290BC
:103170002D200E9007E00A210298FDF7D9F9303191
:10318000029007F8011DB8F10001A8F10108F2DC76
:1031900002980028EFD1791E0E980870307800F060
:1031A000200040F0450007F8020D12A8C01B00F1F6
:1031B00007081498007800B1012000EB0A0101987B
:1031C00001EBE07105984144401A401E0590E00370
:1031D00006D45B462146179A059800F05DF8054431
:1031E0001498007818B15A46179990476D1CE0035F
:1031F00024D55B462146179A059800F04DF8054402
:103200001CE00498002807DBDDE90301884203DDA8
:103210000098405C179901E0179930205A46904772
:10322000049805F10105401C04900198401E01908E
:1032300004D12E205A46179990476D1CBAF100010F
:10324000AAF1010ADDDC05E017F8010B5A461799CF
:1032500090476D1CB8F10001A8F10108F4DC5B4651
:103260002146179A0598ABE62D0000002B000000C0
:10327000200000002DE9F041044600251E461746B7
:10328000880404D405E039462020B0476D1C641E34
:10329000F9D52846BDE8F0812DE9F0410446002526
:1032A0001E469046C80301D5302700E02027880439
:1032B00004D505E041463846B0476D1C641EF9D57B
:1032C0002846BDE8F0810A68531C0B6010707047F7
:1032D0002DE9F0471D4D041E4FF480484FF4004681
:1032E0004FF400574FF480594FF0010213DD41466F
:1032F0002846FDF753FC002231462846FDF74EFCD8
:10330000012239462846FDF749FC00224946284655
:10331000FDF744FC13E031462846FDF73FFC002250
:1033200041462846FDF73AFC012249462846FDF76A
:1033300035FC002239462846FDF730FC644204483B
:103340000168CC6300680464BDE8F087000C0140AC
:10335000980000202DE9F0470026204D204C4FF426
:1033600080414FF400484FF400594FF4805A4FF415
:10337000167702281AD0032816D101222846FDF715
:103380000DFC002241462846FDF708FC0122494673
:103390002846FDF703FC002251462846FDF7FEFBB8
:1033A0002068C66320680764BDE8F08701222846CC
:1033B000FDF7F4FB002241462846FDF7EFFB012212
:1033C00049462846FDF7EAFB002251462846FDF70C
:1033D000E5FB2068C76320680664E5E7000C014050
:1033E00098000020FDF7EEFBFFF746F8FEF7D6FD4C
:1033F000FEF72AFEFEF75CFEFEF790FEFEF76AFF80
:10340000FEF7E0FEFEF714FFFEF748FF3C21804880
:10341000FEF7CAFA3C217F48FEF7C6FA7E48FEF75F
:10342000A5F908217D48FEF737FC0C217B48FEF703
:1034300033FC01227A497B48FEF776FDDFF8E8B1DC
:10344000734FDFF8D0916FF0030A3868406A744C0C
:1034500086B2A41EA680D9F80000406A85B2E58035
:103460003046FDF715F8DFF8C48100224346FCF72B
:1034700017FF00225B46FCF785FF5246FCF7F1FF81
:10348000FDF73AF8A0602846FDF702F8002243460F
:10349000FCF706FF00225B46FCF774FF5246FCF780
:1034A000E0FFFDF729F847F23058E060464512D9B1
:1034B0004FF6FF71881BFCF7EBFF00225B4BFCF71C
:1034C000EFFE00225B46FCF75DFF5246FCF7C9FFAA
:1034D000FDF712F8A060454512D94FF6FF70401B6A
:1034E000FCF7D6FF0022514BFCF7DAFE00225B46C8
:1034F000FCF748FF5246FCF7B4FFFCF7FDFFE06025
:10350000D4E90201FCF742FEFCF7E3FF0022484B3E
:10351000FCF738FF4FF0FF32FCF7A3FFFCF7ECFF9E
:103520002061FCF7D6FF02460B4642A14248FFF756
:103530003DFA20690646FCF7B8FFC0B20A25B0FB89
:10354000F5F03E493046FCF779FEFCF7AEFFC0B21D
:10355000B0FBF5F03A493046FCF770FEFCF7A5FFEA
:10356000C0B2B0FBF5F037493046FCF767FEFCF718
:103570009CFFC0B2B0FBF5F0386800254562D9F871
:1035800000004562607801283DD14FF4FA7630465C
:10359000FDF702FA284865702BA11438FCF7E4FD0A
:1035A00008B1002015E024482BA11438FCF7DCFDFD
:1035B0000028F6D120482CA11438FCF7D5FD08B11D
:1035C000304606E01C482CA11438FCF7CDFD18B19C
:1035D0002D48FFF77DFE10E017482CA11438FCF7AA
:1035E000C3FD08B1032006E013482CA11438FCF7F2
:1035F000BBFD10B10220FFF7ADFE0F4814211438B7
:10360000FCF7A7FD25704FF47A70FDF7C5F91CE7AC
:10361000D800002018010020580000209800002049
:10362000020000209801002000804040000035404A
:1036300000005940256600003800002000002041AD
:103640000000C84200007A4473306C30723066303B
:10365000623026260000000073316C307230663014
:10366000623026260000000073316C307230663103
:10367000623026260000000073316C3072306630F4
:103680006231262600000000D4FEFFFF73316C304B
:1036900072316631623026260000000073316C31D1
:1036A0007230663162302626000000000000000003
:1036B00000000000010203040607080900000000E2
:1036C00001020304E436000800000020240000008A
:1036D000F42900080837000824000020B405000081
:1036E000042A0008000000000000000000000000A4
:1036F00000000000000000000100000010000000B9
:08370000000000000024F400A9
:04000005080000ED02
:00000001FF
